{
  "contractName": "Helper",
  "abi": [
    {
      "constant": true,
      "inputs": [
        {
          "name": "choice",
          "type": "uint8"
        },
        {
          "name": "nonce",
          "type": "uint256"
        }
      ],
      "name": "generate_commitment",
      "outputs": [
        {
          "name": "",
          "type": "bytes32"
        }
      ],
      "payable": false,
      "stateMutability": "pure",
      "type": "function"
    }
  ],
  "bytecode": "0x608060405234801561001057600080fd5b5060e78061001f6000396000f3fe6080604052348015600f57600080fd5b506004361060285760003560e01c80630b1f7e7714602d575b600080fd5b606360048036036040811015604157600080fd5b81019080803560ff169060200190929190803590602001909291905050506079565b6040518082815260200191505060405180910390f35b60008282604051602001808360ff1660ff1660f81b8152600101828152602001925050506040516020818303038152906040528051906020012090509291505056fea165627a7a72305820c1e7de8773004fa33b7ce92481f7926d85cef4a669ad88d64ac62a4d5ea0d36d0029",
  "source": "pragma solidity ^0.5.8;\n\ncontract Helper {\n    function generate_commitment(uint8 choice, uint256 nonce) public pure returns (bytes32) {\n        return keccak256(abi.encodePacked(choice, nonce));\n    }\n}\n",
  "sourcePath": "/home/ksvsc/IIITH/Monsoon19/Block Chain/Assignment3/hi-lo/contracts/Helper.sol",
  "compiler": {
    "name": "solc",
    "version": "0.5.8+commit.23d335f2.Emscripten.clang"
  },
  "schemaVersion": "3.0.15",
  "updatedAt": "2019-11-30T08:59:33.054Z",
  "devdoc": {
    "methods": {}
  },
  "userdoc": {
    "methods": {}
  }
}