{
  "contractName": "HighLow",
  "abi": [
    {
      "constant": true,
      "inputs": [],
      "name": "WAIT_TIME",
      "outputs": [
        {
          "name": "",
          "type": "uint256"
        }
      ],
      "payable": false,
      "stateMutability": "view",
      "type": "function"
    },
    {
      "constant": true,
      "inputs": [
        {
          "name": "",
          "type": "uint256"
        }
      ],
      "name": "burn",
      "outputs": [
        {
          "name": "",
          "type": "bool"
        }
      ],
      "payable": false,
      "stateMutability": "view",
      "type": "function"
    },
    {
      "constant": true,
      "inputs": [],
      "name": "curr_card_index",
      "outputs": [
        {
          "name": "",
          "type": "uint256"
        }
      ],
      "payable": false,
      "stateMutability": "view",
      "type": "function"
    },
    {
      "constant": true,
      "inputs": [],
      "name": "MAX_CARDS",
      "outputs": [
        {
          "name": "",
          "type": "uint256"
        }
      ],
      "payable": false,
      "stateMutability": "view",
      "type": "function"
    },
    {
      "constant": true,
      "inputs": [],
      "name": "start_time",
      "outputs": [
        {
          "name": "",
          "type": "uint256"
        }
      ],
      "payable": false,
      "stateMutability": "view",
      "type": "function"
    },
    {
      "constant": true,
      "inputs": [],
      "name": "SUITE_SIZE",
      "outputs": [
        {
          "name": "",
          "type": "uint256"
        }
      ],
      "payable": false,
      "stateMutability": "view",
      "type": "function"
    },
    {
      "constant": true,
      "inputs": [
        {
          "name": "",
          "type": "uint256"
        }
      ],
      "name": "cards",
      "outputs": [
        {
          "name": "",
          "type": "uint256"
        }
      ],
      "payable": false,
      "stateMutability": "view",
      "type": "function"
    },
    {
      "constant": true,
      "inputs": [],
      "name": "announced_card",
      "outputs": [
        {
          "name": "",
          "type": "uint256"
        }
      ],
      "payable": false,
      "stateMutability": "view",
      "type": "function"
    },
    {
      "constant": true,
      "inputs": [],
      "name": "SHUFFLE_LIMIT",
      "outputs": [
        {
          "name": "",
          "type": "uint256"
        }
      ],
      "payable": false,
      "stateMutability": "view",
      "type": "function"
    },
    {
      "constant": true,
      "inputs": [
        {
          "name": "",
          "type": "address"
        }
      ],
      "name": "players",
      "outputs": [
        {
          "name": "bet_amount",
          "type": "uint256"
        },
        {
          "name": "idx",
          "type": "uint256"
        },
        {
          "name": "commitment",
          "type": "bytes32"
        }
      ],
      "payable": false,
      "stateMutability": "view",
      "type": "function"
    },
    {
      "constant": true,
      "inputs": [],
      "name": "house",
      "outputs": [
        {
          "name": "",
          "type": "address"
        }
      ],
      "payable": false,
      "stateMutability": "view",
      "type": "function"
    },
    {
      "inputs": [],
      "payable": false,
      "stateMutability": "nonpayable",
      "type": "constructor"
    },
    {
      "constant": false,
      "inputs": [
        {
          "name": "_amount",
          "type": "uint256"
        }
      ],
      "name": "deposit",
      "outputs": [],
      "payable": true,
      "stateMutability": "payable",
      "type": "function"
    },
    {
      "constant": false,
      "inputs": [
        {
          "name": "_commit",
          "type": "bytes32"
        }
      ],
      "name": "bet_commit",
      "outputs": [],
      "payable": true,
      "stateMutability": "payable",
      "type": "function"
    },
    {
      "constant": false,
      "inputs": [
        {
          "name": "_choice",
          "type": "uint8"
        },
        {
          "name": "_nonce",
          "type": "uint256"
        }
      ],
      "name": "bet_reveal",
      "outputs": [],
      "payable": false,
      "stateMutability": "nonpayable",
      "type": "function"
    }
  ],
  "bytecode": "0x60806040523480156200001157600080fd5b50336000806101000a81548173ffffffffffffffffffffffffffffffffffffffff021916908373ffffffffffffffffffffffffffffffffffffffff160217905550620000626200006860201b60201c565b6200021f565b60008090506000601e602154816200007c57fe5b061415620000cf57600090505b6034811015620000ce576000601f8260348110620000a357fe5b602091828204019190066101000a81548160ff02191690831515021790555080600101905062000089565b5b426022819055506000603442604051602001808281526020019150506040516020818303038152906040528051906020012060001c816200010c57fe5b069050600d81816200011a57fe5b066023819055505b601f81603481106200013057fe5b602091828204019190069054906101000a900460ff16806200015457506002602354105b80620001625750600a602354115b15620001bf576034828202604051602001808281526020019150506040516020818303038152906040528051906020012060001c816200019e57fe5b069050600d8181620001ac57fe5b0660238190555060018201915062000122565b6001601f8260348110620001cf57fe5b602091828204019190066101000a81548160ff021916908315150217905550600160215401602181905550806001601e602154816200020a57fe5b06601e81106200021657fe5b01819055505050565b610f3b806200022f6000396000f3fe6080604052600436106100dd5760003560e01c8063847d68891161007f578063b6b55f2511610059578063b6b55f25146102fc578063c14487871461032a578063e2eb41ff14610355578063ff9b3acf146103c8576100dd565b8063847d6889146102575780638dc10768146102825780639d3a7637146102d1576100dd565b80636a67db40116100bb5780636a67db40146101a85780637dd141a8146101d65780637e744a7614610201578063834ee4171461022c576100dd565b8063388aef5c146100e257806342966c681461010d578063517b325e14610160575b600080fd5b3480156100ee57600080fd5b506100f761041f565b6040518082815260200191505060405180910390f35b34801561011957600080fd5b506101466004803603602081101561013057600080fd5b8101908080359060200190929190505050610424565b604051808215151515815260200191505060405180910390f35b34801561016c57600080fd5b506101a66004803603604081101561018357600080fd5b81019080803560ff1690602001909291908035906020019092919050505061044b565b005b6101d4600480360360208110156101be57600080fd5b8101908080359060200190929190505050610a05565b005b3480156101e257600080fd5b506101eb610bb4565b6040518082815260200191505060405180910390f35b34801561020d57600080fd5b50610216610bba565b6040518082815260200191505060405180910390f35b34801561023857600080fd5b50610241610bbf565b6040518082815260200191505060405180910390f35b34801561026357600080fd5b5061026c610bc5565b6040518082815260200191505060405180910390f35b34801561028e57600080fd5b506102bb600480360360208110156102a557600080fd5b8101908080359060200190929190505050610bca565b6040518082815260200191505060405180910390f35b3480156102dd57600080fd5b506102e6610be2565b6040518082815260200191505060405180910390f35b6103286004803603602081101561031257600080fd5b8101908080359060200190929190505050610be8565b005b34801561033657600080fd5b5061033f610c43565b6040518082815260200191505060405180910390f35b34801561036157600080fd5b506103a46004803603602081101561037857600080fd5b81019080803573ffffffffffffffffffffffffffffffffffffffff169060200190929190505050610c48565b60405180848152602001838152602001828152602001935050505060405180910390f35b3480156103d457600080fd5b506103dd610c72565b604051808273ffffffffffffffffffffffffffffffffffffffff1673ffffffffffffffffffffffffffffffffffffffff16815260200191505060405180910390f35b601e81565b601f816034811061043157fe5b60209182820401919006915054906101000a900460ff1681565b601e6022540142106104605761045f610c97565b5b6000602460003373ffffffffffffffffffffffffffffffffffffffff1673ffffffffffffffffffffffffffffffffffffffff16815260200190815260200160002060000154116104fb576040517f08c379a0000000000000000000000000000000000000000000000000000000008152600401808060200182810382526021815260200180610e3e6021913960400191505060405180910390fd5b6000602460003373ffffffffffffffffffffffffffffffffffffffff1673ffffffffffffffffffffffffffffffffffffffff16815260200190815260200160002060010154602154031161059a576040517f08c379a000000000000000000000000000000000000000000000000000000000815260040180806020018281038252602b815260200180610e81602b913960400191505060405180910390fd5b601e602460003373ffffffffffffffffffffffffffffffffffffffff1673ffffffffffffffffffffffffffffffffffffffff168152602001908152602001600020600101546021540310610656576040517f08c379a00000000000000000000000000000000000000000000000000000000081526004018080602001828103825260178152602001807f546f6f206c6174652c2062657420666f7266656974656400000000000000000081525060200191505060405180910390fd5b60008282604051602001808360ff1660ff1660f81b8152600101828152602001925050506040516020818303038152906040528051906020012090506000600d6001601e602460003373ffffffffffffffffffffffffffffffffffffffff1673ffffffffffffffffffffffffffffffffffffffff16815260200190815260200160002060010154816106e457fe5b06601e81106106ef57fe5b0154816106f857fe5b0690506000600d6001601e8061070a57fe5b6001602460003373ffffffffffffffffffffffffffffffffffffffff1673ffffffffffffffffffffffffffffffffffffffff1681526020019081526020016000206001015408601e811061075a57fe5b01548161076357fe5b069050602460003373ffffffffffffffffffffffffffffffffffffffff1673ffffffffffffffffffffffffffffffffffffffff168152602001908152602001600020600201548314156109fe5781811415610867576000809054906101000a900473ffffffffffffffffffffffffffffffffffffffff1673ffffffffffffffffffffffffffffffffffffffff166108fc602460003373ffffffffffffffffffffffffffffffffffffffff1673ffffffffffffffffffffffffffffffffffffffff168152602001908152602001600020600001549081150290604051600060405180830381858888f19350505050158015610861573d6000803e3d6000fd5b506109b5565b8181108015610879575060008560ff16145b1561090f573373ffffffffffffffffffffffffffffffffffffffff166108fc602460003373ffffffffffffffffffffffffffffffffffffffff1673ffffffffffffffffffffffffffffffffffffffff168152602001908152602001600020600001546002029081150290604051600060405180830381858888f19350505050158015610909573d6000803e3d6000fd5b506109b4565b8181118015610921575060018560ff16145b156109b3573373ffffffffffffffffffffffffffffffffffffffff166108fc602460003373ffffffffffffffffffffffffffffffffffffffff1673ffffffffffffffffffffffffffffffffffffffff168152602001908152602001600020600001546002029081150290604051600060405180830381858888f193505050501580156109b1573d6000803e3d6000fd5b505b5b5b6000602460003373ffffffffffffffffffffffffffffffffffffffff1673ffffffffffffffffffffffffffffffffffffffff168152602001908152602001600020600001819055505b5050505050565b662386f26fc10000341015610a65576040517f08c379a0000000000000000000000000000000000000000000000000000000008152600401808060200182810382526022815260200180610e5f6022913960400191505060405180910390fd5b678ac7230489e800003410610ac5576040517f08c379a0000000000000000000000000000000000000000000000000000000008152600401808060200182810382526021815260200180610eef6021913960400191505060405180910390fd5b34602460003373ffffffffffffffffffffffffffffffffffffffff1673ffffffffffffffffffffffffffffffffffffffff16815260200190815260200160002060000181905550602154602460003373ffffffffffffffffffffffffffffffffffffffff1673ffffffffffffffffffffffffffffffffffffffff1681526020019081526020016000206001018190555080602460003373ffffffffffffffffffffffffffffffffffffffff1673ffffffffffffffffffffffffffffffffffffffff16815260200190815260200160002060020181905550601e602254014210610bb157610bb0610c97565b5b50565b60215481565b603481565b60225481565b600d81565b600181601e8110610bd757fe5b016000915090505481565b60235481565b803414610c40576040517f08c379a0000000000000000000000000000000000000000000000000000000008152600401808060200182810382526043815260200180610eac6043913960600191505060405180910390fd5b50565b601e81565b60246020528060005260406000206000915090508060000154908060010154908060020154905083565b6000809054906101000a900473ffffffffffffffffffffffffffffffffffffffff1681565b60008090506000601e60215481610caa57fe5b061415610cf957600090505b6034811015610cf8576000601f8260348110610cce57fe5b602091828204019190066101000a81548160ff021916908315150217905550806001019050610cb6565b5b426022819055506000603442604051602001808281526020019150506040516020818303038152906040528051906020012060001c81610d3557fe5b069050600d8181610d4257fe5b066023819055505b601f8160348110610d5757fe5b602091828204019190069054906101000a900460ff1680610d7a57506002602354105b80610d875750600a602354115b15610de0576034828202604051602001808281526020019150506040516020818303038152906040528051906020012060001c81610dc157fe5b069050600d8181610dce57fe5b06602381905550600182019150610d4a565b6001601f8260348110610def57fe5b602091828204019190066101000a81548160ff021916908315150217905550600160215401602181905550806001601e60215481610e2957fe5b06601e8110610e3457fe5b0181905550505056fe4e6f2070656e64696e6720636f6d6d69746d656e74732c2067616d65206f766572416d6f756e7420746f6f206c6f772c204d696e2042657420302e3031204574686572546f6f206561726c792c207761697420666f7220746865206e65787420616e6e6f756e6365642063617264496e636f727265637420416d6f756e742c2073706563696669656420616d6f756e7420646f6573206e6f74206d61746368207472616e73616374696f6e2076616c7565416d6f756e7420746f6f20686967682c204d617820426574203130204574686572a165627a7a72305820e60f820c28facdf1045612e17e4ab3afb687849c6b795996e6c9e0ede4df66f10029",
  "source": "pragma solidity ^0.5.8;\n\ncontract HighLow {\n    address payable public house;\n    /// @dev Maximum cards in the Burn Deck before mixing into deck\n    uint public constant SHUFFLE_LIMIT = 30;\n    /// @dev Size of our deck from which cards are drawn\n    uint public constant MAX_CARDS = 52;\n    /// @dev Length of maximum chain in cards\n    uint public constant SUITE_SIZE = 13;\n    uint[SHUFFLE_LIMIT] public cards;\n    bool[MAX_CARDS] public burn;\n    uint public curr_card_index;\n    /// @dev Determines the duration of a single round\n    uint public constant WAIT_TIME = 30;\n    uint public start_time;\n    uint public announced_card;\n\n    struct Player {\n        uint bet_amount;\n        uint idx;\n        bytes32 commitment;\n    }\n\n    constructor() public {\n        house = msg.sender;\n        new_card();\n    }\n\n    /// @notice Deposit ether into the contract\n    /// @param _amount Value of ether being deposited (in wei)\n    function deposit(uint _amount) public payable {\n        require(msg.value == _amount, \"Incorrect Amount, specified amount does not match transaction value\");\n        // This condition rejects any typos in transaction\n    }\n\n    function new_card() internal {\n        uint i = 0;\n        if(curr_card_index % SHUFFLE_LIMIT == 0) {\n            for(i = 0; i < MAX_CARDS; ++i) {\n                burn[i] = false;\n            }\n        }\n        start_time = now;\n        uint rand = uint256(keccak256(abi.encodePacked(now))) % MAX_CARDS;\n        announced_card = rand % SUITE_SIZE;\n        while(burn[rand] || announced_card < 2 || announced_card > 10) {\n            rand = uint256(keccak256(abi.encodePacked(rand*i))) % MAX_CARDS;\n            announced_card = rand % SUITE_SIZE;\n            i = i + 1;\n        }\n        burn[rand] = true;\n        curr_card_index = curr_card_index + 1;\n        cards[curr_card_index % SHUFFLE_LIMIT] = rand;\n    }\n\n    mapping (address => Player) public players;\n\n    /// @notice Commit a choice (0 for High, 1 for Low) along with bet money for the announced_card\n    /// @param _commit SHA-3 256 Hash of the Choice and random nonce\n    function bet_commit(bytes32 _commit) public payable {\n        require(msg.value >= 0.01 ether, \"Amount too low, Min Bet 0.01 Ether\");\n        require(msg.value < 10 ether, \"Amount too high, Max Bet 10 Ether\");\n        players[msg.sender].bet_amount = (uint)(msg.value);\n        players[msg.sender].idx = curr_card_index;\n        players[msg.sender].commitment = _commit;\n        if(now >= start_time + WAIT_TIME) {\n            new_card();\n        }\n    }\n\n    /// @notice Reveal the bet to claim rewards\n    /// @dev NOTE: new_card() called before require to break deadlocks\n    /// @param _choice Choice (0 for High, 1 for Low) commited earlier\n    /// @param _nonce Same nonce used for commitment earlier\n    function bet_reveal(uint8 _choice, uint256 _nonce) public {\n        if(now >= start_time + WAIT_TIME) {\n            new_card();\n        }\n        require(players[msg.sender].bet_amount > 0, \"No pending commitments, game over\");\n        require(curr_card_index - players[msg.sender].idx > 0, \"Too early, wait for the next announced card\");\n        require(curr_card_index - players[msg.sender].idx < SHUFFLE_LIMIT, \"Too late, bet forfeited\");\n        bytes32 test_hash = keccak256(abi.encodePacked(_choice, _nonce));\n        uint bet_card = cards[players[msg.sender].idx % SHUFFLE_LIMIT] % SUITE_SIZE;\n        uint result_card = cards[addmod(players[msg.sender].idx, 1, SHUFFLE_LIMIT)] % SUITE_SIZE;\n        if(test_hash == players[msg.sender].commitment) {\n            if (result_card == bet_card)\n                house.transfer(players[msg.sender].bet_amount);\n            else if (result_card < bet_card && _choice == 0)\n                msg.sender.transfer(2*players[msg.sender].bet_amount);\n            else if (result_card > bet_card && _choice == 1)\n                msg.sender.transfer(2*players[msg.sender].bet_amount);\n            players[msg.sender].bet_amount = 0;\n        }\n    }\n}",
  "sourcePath": "/home/ajainuary/blockchain/A3/contracts/HighLow.sol",
  "compiler": {
    "name": "solc",
    "version": "0.5.8+commit.23d335f2.Emscripten.clang"
  },
  "schemaVersion": "3.0.14",
  "updatedAt": "2019-11-28T08:05:09.336Z",
  "devdoc": {
    "methods": {
      "bet_commit(bytes32)": {
        "params": {
          "_commit": "SHA-3 256 Hash of the Choice and random nonce"
        }
      },
      "bet_reveal(uint8,uint256)": {
        "details": "NOTE: new_card() called before require to break deadlocks",
        "params": {
          "_choice": "Choice (0 for High, 1 for Low) commited earlier",
          "_nonce": "Same nonce used for commitment earlier"
        }
      },
      "deposit(uint256)": {
        "params": {
          "_amount": "Value of ether being deposited (in wei)"
        }
      }
    }
  },
  "userdoc": {
    "methods": {
      "bet_commit(bytes32)": {
        "notice": "Commit a choice (0 for High, 1 for Low) along with bet money for the announced_card"
      },
      "bet_reveal(uint8,uint256)": {
        "notice": "Reveal the bet to claim rewards"
      },
      "deposit(uint256)": {
        "notice": "Deposit ether into the contract"
      }
    }
  }
}