{
  "contractName": "HighLow",
  "abi": [
    {
      "constant": true,
      "inputs": [],
      "name": "WAIT_TIME",
      "outputs": [
        {
          "name": "",
          "type": "uint256"
        }
      ],
      "payable": false,
      "stateMutability": "view",
      "type": "function"
    },
    {
      "constant": true,
      "inputs": [
        {
          "name": "",
          "type": "uint256"
        }
      ],
      "name": "burn",
      "outputs": [
        {
          "name": "",
          "type": "bool"
        }
      ],
      "payable": false,
      "stateMutability": "view",
      "type": "function"
    },
    {
      "constant": true,
      "inputs": [],
      "name": "curr_card_index",
      "outputs": [
        {
          "name": "",
          "type": "uint256"
        }
      ],
      "payable": false,
      "stateMutability": "view",
      "type": "function"
    },
    {
      "constant": true,
      "inputs": [],
      "name": "start_time",
      "outputs": [
        {
          "name": "",
          "type": "uint256"
        }
      ],
      "payable": false,
      "stateMutability": "view",
      "type": "function"
    },
    {
      "constant": true,
      "inputs": [],
      "name": "SUITE_SIZE",
      "outputs": [
        {
          "name": "",
          "type": "uint256"
        }
      ],
      "payable": false,
      "stateMutability": "view",
      "type": "function"
    },
    {
      "constant": true,
      "inputs": [
        {
          "name": "",
          "type": "uint256"
        }
      ],
      "name": "cards",
      "outputs": [
        {
          "name": "",
          "type": "uint256"
        }
      ],
      "payable": false,
      "stateMutability": "view",
      "type": "function"
    },
    {
      "constant": true,
      "inputs": [],
      "name": "announced_card",
      "outputs": [
        {
          "name": "",
          "type": "uint256"
        }
      ],
      "payable": false,
      "stateMutability": "view",
      "type": "function"
    },
    {
      "constant": true,
      "inputs": [],
      "name": "SHUFFLE_LIMIT",
      "outputs": [
        {
          "name": "",
          "type": "uint256"
        }
      ],
      "payable": false,
      "stateMutability": "view",
      "type": "function"
    },
    {
      "constant": true,
      "inputs": [],
      "name": "MAX_CARD",
      "outputs": [
        {
          "name": "",
          "type": "uint256"
        }
      ],
      "payable": false,
      "stateMutability": "view",
      "type": "function"
    },
    {
      "constant": true,
      "inputs": [
        {
          "name": "",
          "type": "address"
        }
      ],
      "name": "players",
      "outputs": [
        {
          "name": "bet_amount",
          "type": "uint256"
        },
        {
          "name": "idx",
          "type": "uint256"
        },
        {
          "name": "commitment",
          "type": "bytes32"
        }
      ],
      "payable": false,
      "stateMutability": "view",
      "type": "function"
    },
    {
      "constant": true,
      "inputs": [],
      "name": "house",
      "outputs": [
        {
          "name": "",
          "type": "address"
        }
      ],
      "payable": false,
      "stateMutability": "view",
      "type": "function"
    },
    {
      "inputs": [],
      "payable": false,
      "stateMutability": "nonpayable",
      "type": "constructor"
    },
    {
      "anonymous": false,
      "inputs": [],
      "name": "NewCard",
      "type": "event"
    },
    {
      "constant": false,
      "inputs": [
        {
          "name": "_amount",
          "type": "uint256"
        }
      ],
      "name": "deposit",
      "outputs": [],
      "payable": true,
      "stateMutability": "payable",
      "type": "function"
    },
    {
      "constant": false,
      "inputs": [
        {
          "name": "_commit",
          "type": "bytes32"
        }
      ],
      "name": "bet_commit",
      "outputs": [],
      "payable": true,
      "stateMutability": "payable",
      "type": "function"
    },
    {
      "constant": false,
      "inputs": [
        {
          "name": "_choice",
          "type": "uint8"
        },
        {
          "name": "_nonce",
          "type": "uint256"
        }
      ],
      "name": "bet_reveal",
      "outputs": [],
      "payable": false,
      "stateMutability": "nonpayable",
      "type": "function"
    }
  ],
  "bytecode": "0x60806040523480156200001157600080fd5b50336000806101000a81548173ffffffffffffffffffffffffffffffffffffffff021916908373ffffffffffffffffffffffffffffffffffffffff160217905550620000626200006860201b60201c565b6200027e565b60008090506000600a600d54816200007c57fe5b0614156200010257600090505b6034811015620000ce576000600b8260348110620000a357fe5b602091828204019190066101000a81548160ff02191690831515021790555080600101905062000089565b600090505b600a81101562000101576001603401600182600a8110620000f057fe5b0181905550806001019050620000d3565b5b42600e819055506000603442604051602001808281526020019150506040516020818303038152906040528051906020012060001c816200013f57fe5b069050600d81816200014d57fe5b06600f819055505b600b81603481106200016357fe5b602091828204019190069054906101000a900460ff16806200018757506002600f54105b80620001955750600a600f54115b15620001f2576034828202604051602001808281526020019150506040516020818303038152906040528051906020012060001c81620001d157fe5b069050600d8181620001df57fe5b06600f8190555060018201915062000155565b6001600b82603481106200020257fe5b602091828204019190066101000a81548160ff0219169083151502179055506001600d5401600d81905550806001600a600d54816200023d57fe5b06600a81106200024957fe5b01819055507f0b65b5464589082b8122394ce0274824a2ccf9757c2d45456ba70ed923fc6dcb60405160405180910390a15050565b610f97806200028e6000396000f3fe6080604052600436106100dd5760003560e01c80638dc107681161007f578063c144878711610059578063c1448787146102ff578063dcb5c5311461032a578063e2eb41ff14610355578063ff9b3acf146103c8576100dd565b80638dc10768146102575780639d3a7637146102a6578063b6b55f25146102d1576100dd565b80636a67db40116100bb5780636a67db40146101a85780637dd141a8146101d6578063834ee41714610201578063847d68891461022c576100dd565b8063388aef5c146100e257806342966c681461010d578063517b325e14610160575b600080fd5b3480156100ee57600080fd5b506100f761041f565b6040518082815260200191505060405180910390f35b34801561011957600080fd5b506101466004803603602081101561013057600080fd5b8101908080359060200190929190505050610424565b604051808215151515815260200191505060405180910390f35b34801561016c57600080fd5b506101a66004803603604081101561018357600080fd5b81019080803560ff1690602001909291908035906020019092919050505061044b565b005b6101d4600480360360208110156101be57600080fd5b8101908080359060200190929190505050610a05565b005b3480156101e257600080fd5b506101eb610bb4565b6040518082815260200191505060405180910390f35b34801561020d57600080fd5b50610216610bba565b6040518082815260200191505060405180910390f35b34801561023857600080fd5b50610241610bc0565b6040518082815260200191505060405180910390f35b34801561026357600080fd5b506102906004803603602081101561027a57600080fd5b8101908080359060200190929190505050610bc5565b6040518082815260200191505060405180910390f35b3480156102b257600080fd5b506102bb610bdd565b6040518082815260200191505060405180910390f35b6102fd600480360360208110156102e757600080fd5b8101908080359060200190929190505050610be3565b005b34801561030b57600080fd5b50610314610c3e565b6040518082815260200191505060405180910390f35b34801561033657600080fd5b5061033f610c43565b6040518082815260200191505060405180910390f35b34801561036157600080fd5b506103a46004803603602081101561037857600080fd5b81019080803573ffffffffffffffffffffffffffffffffffffffff169060200190929190505050610c48565b60405180848152602001838152602001828152602001935050505060405180910390f35b3480156103d457600080fd5b506103dd610c72565b604051808273ffffffffffffffffffffffffffffffffffffffff1673ffffffffffffffffffffffffffffffffffffffff16815260200191505060405180910390f35b601e81565b600b816034811061043157fe5b60209182820401919006915054906101000a900460ff1681565b601e600e540142106104605761045f610c97565b5b6000601060003373ffffffffffffffffffffffffffffffffffffffff1673ffffffffffffffffffffffffffffffffffffffff16815260200190815260200160002060000154116104fb576040517f08c379a0000000000000000000000000000000000000000000000000000000008152600401808060200182810382526021815260200180610e9a6021913960400191505060405180910390fd5b6000601060003373ffffffffffffffffffffffffffffffffffffffff1673ffffffffffffffffffffffffffffffffffffffff16815260200190815260200160002060010154600d54031161059a576040517f08c379a000000000000000000000000000000000000000000000000000000000815260040180806020018281038252602b815260200180610edd602b913960400191505060405180910390fd5b600a601060003373ffffffffffffffffffffffffffffffffffffffff1673ffffffffffffffffffffffffffffffffffffffff16815260200190815260200160002060010154600d540310610656576040517f08c379a00000000000000000000000000000000000000000000000000000000081526004018080602001828103825260178152602001807f546f6f206c6174652c2062657420666f7266656974656400000000000000000081525060200191505060405180910390fd5b60008282604051602001808360ff1660ff1660f81b8152600101828152602001925050506040516020818303038152906040528051906020012090506000600d6001600a601060003373ffffffffffffffffffffffffffffffffffffffff1673ffffffffffffffffffffffffffffffffffffffff16815260200190815260200160002060010154816106e457fe5b06600a81106106ef57fe5b0154816106f857fe5b0690506000600d6001600a8061070a57fe5b6001601060003373ffffffffffffffffffffffffffffffffffffffff1673ffffffffffffffffffffffffffffffffffffffff1681526020019081526020016000206001015408600a811061075a57fe5b01548161076357fe5b069050601060003373ffffffffffffffffffffffffffffffffffffffff1673ffffffffffffffffffffffffffffffffffffffff168152602001908152602001600020600201548314156109fe5781811415610867576000809054906101000a900473ffffffffffffffffffffffffffffffffffffffff1673ffffffffffffffffffffffffffffffffffffffff166108fc601060003373ffffffffffffffffffffffffffffffffffffffff1673ffffffffffffffffffffffffffffffffffffffff168152602001908152602001600020600001549081150290604051600060405180830381858888f19350505050158015610861573d6000803e3d6000fd5b506109b5565b8181108015610879575060008560ff16145b1561090f573373ffffffffffffffffffffffffffffffffffffffff166108fc601060003373ffffffffffffffffffffffffffffffffffffffff1673ffffffffffffffffffffffffffffffffffffffff168152602001908152602001600020600001546002029081150290604051600060405180830381858888f19350505050158015610909573d6000803e3d6000fd5b506109b4565b8181118015610921575060018560ff16145b156109b3573373ffffffffffffffffffffffffffffffffffffffff166108fc601060003373ffffffffffffffffffffffffffffffffffffffff1673ffffffffffffffffffffffffffffffffffffffff168152602001908152602001600020600001546002029081150290604051600060405180830381858888f193505050501580156109b1573d6000803e3d6000fd5b505b5b5b6000601060003373ffffffffffffffffffffffffffffffffffffffff1673ffffffffffffffffffffffffffffffffffffffff168152602001908152602001600020600001819055505b5050505050565b662386f26fc10000341015610a65576040517f08c379a0000000000000000000000000000000000000000000000000000000008152600401808060200182810382526022815260200180610ebb6022913960400191505060405180910390fd5b678ac7230489e800003410610ac5576040517f08c379a0000000000000000000000000000000000000000000000000000000008152600401808060200182810382526021815260200180610f4b6021913960400191505060405180910390fd5b34601060003373ffffffffffffffffffffffffffffffffffffffff1673ffffffffffffffffffffffffffffffffffffffff16815260200190815260200160002060000181905550600d54601060003373ffffffffffffffffffffffffffffffffffffffff1673ffffffffffffffffffffffffffffffffffffffff1681526020019081526020016000206001018190555080601060003373ffffffffffffffffffffffffffffffffffffffff1673ffffffffffffffffffffffffffffffffffffffff16815260200190815260200160002060020181905550601e600e54014210610bb157610bb0610c97565b5b50565b600d5481565b600e5481565b600d81565b600181600a8110610bd257fe5b016000915090505481565b600f5481565b803414610c3b576040517f08c379a0000000000000000000000000000000000000000000000000000000008152600401808060200182810382526043815260200180610f086043913960600191505060405180910390fd5b50565b600a81565b603481565b60106020528060005260406000206000915090508060000154908060010154908060020154905083565b6000809054906101000a900473ffffffffffffffffffffffffffffffffffffffff1681565b60008090506000600a600d5481610caa57fe5b061415610d2957600090505b6034811015610cf8576000600b8260348110610cce57fe5b602091828204019190066101000a81548160ff021916908315150217905550806001019050610cb6565b600090505b600a811015610d28576001603401600182600a8110610d1857fe5b0181905550806001019050610cfd565b5b42600e819055506000603442604051602001808281526020019150506040516020818303038152906040528051906020012060001c81610d6557fe5b069050600d8181610d7257fe5b06600f819055505b600b8160348110610d8757fe5b602091828204019190069054906101000a900460ff1680610daa57506002600f54105b80610db75750600a600f54115b15610e10576034828202604051602001808281526020019150506040516020818303038152906040528051906020012060001c81610df157fe5b069050600d8181610dfe57fe5b06600f81905550600182019150610d7a565b6001600b8260348110610e1f57fe5b602091828204019190066101000a81548160ff0219169083151502179055506001600d5401600d81905550806001600a600d5481610e5957fe5b06600a8110610e6457fe5b01819055507f0b65b5464589082b8122394ce0274824a2ccf9757c2d45456ba70ed923fc6dcb60405160405180910390a1505056fe4e6f2070656e64696e6720636f6d6d69746d656e74732c2067616d65206f766572416d6f756e7420746f6f206c6f772c204d696e2042657420302e3031204574686572546f6f206561726c792c207761697420666f7220746865206e65787420616e6e6f756e6365642063617264496e636f727265637420416d6f756e742c2073706563696669656420616d6f756e7420646f6573206e6f74206d61746368207472616e73616374696f6e2076616c7565416d6f756e7420746f6f20686967682c204d617820426574203130204574686572a165627a7a723058204ee72a3ba09c22141ff952605082c32df05c91587ae5e39d5d09499136e8082e0029",
  "source": "pragma solidity ^0.5.8;\n\ncontract HighLow {\n    address payable public house;\n    /// @dev Maximum cards in the Burn Deck before mixing into deck\n    uint public constant SHUFFLE_LIMIT = 10;\n    /// @dev Size of our deck from which cards are drawn\n    uint public constant MAX_CARD = 52;\n    /// @dev Length of maximum chain in cards\n    uint public constant SUITE_SIZE = 13;\n    uint[SHUFFLE_LIMIT] public cards;\n    bool[MAX_CARD] public burn;\n    uint public curr_card_index;\n    /// @dev Determines the duration of a single round\n    uint public constant WAIT_TIME = 30;\n    uint public start_time;\n    uint public announced_card;\n\n    struct Player {\n        uint bet_amount;\n        uint idx;\n        bytes32 commitment;\n    }\n\n    constructor() public {\n        house = msg.sender;\n        new_card();\n    }\n\n    /// @notice Event for announcing the new card\n    event NewCard();\n\n    /// @notice Deposit ether into the contract\n    /// @param _amount Value of ether being deposited (in wei)\n    function deposit(uint _amount) public payable {\n        require(msg.value == _amount, \"Incorrect Amount, specified amount does not match transaction value\");\n        // This condition rejects any typos in transaction\n    }\n\n    function new_card() internal {\n        uint i = 0;\n        if(curr_card_index % SHUFFLE_LIMIT == 0) {\n            for(i = 0; i < MAX_CARD; ++i) {\n                burn[i] = false;\n            }\n            for(i = 0; i < SHUFFLE_LIMIT; ++i) {\n                cards[i] = MAX_CARD+1;\n            }\n        }\n        start_time = now;\n        uint rand = uint256(keccak256(abi.encodePacked(now))) % MAX_CARD;\n        announced_card = rand % SUITE_SIZE;\n        while(burn[rand] || announced_card < 2 || announced_card > 10) {\n            rand = uint256(keccak256(abi.encodePacked(rand*i))) % MAX_CARD;\n            announced_card = rand % SUITE_SIZE;\n            i = i + 1;\n        }\n        burn[rand] = true;\n        curr_card_index = curr_card_index + 1;\n        cards[curr_card_index % SHUFFLE_LIMIT] = rand;\n        emit NewCard();\n    }\n\n    mapping (address => Player) public players;\n\n    /// @notice Commit a choice (0 for High, 1 for Low) along with bet money for the announced_card\n    /// @param _commit SHA-3 256 Hash of the Choice and random nonce\n    function bet_commit(bytes32 _commit) public payable {\n        require(msg.value >= 0.01 ether, \"Amount too low, Min Bet 0.01 Ether\");\n        require(msg.value < 10 ether, \"Amount too high, Max Bet 10 Ether\");\n        players[msg.sender].bet_amount = (uint)(msg.value);\n        players[msg.sender].idx = curr_card_index;\n        players[msg.sender].commitment = _commit;\n        if(now >= start_time + WAIT_TIME) {\n            new_card();\n        }\n    }\n\n    /// @notice Reveal the bet to claim rewards\n    /// @dev NOTE: new_card() called before require to break deadlocks\n    /// @param _choice Choice (0 for High, 1 for Low) commited earlier\n    /// @param _nonce Same nonce used for commitment earlier\n    function bet_reveal(uint8 _choice, uint256 _nonce) public {\n        if(now >= start_time + WAIT_TIME) {\n            new_card();\n        }\n        require(players[msg.sender].bet_amount > 0, \"No pending commitments, game over\");\n        require(curr_card_index - players[msg.sender].idx > 0, \"Too early, wait for the next announced card\");\n        require(curr_card_index - players[msg.sender].idx < SHUFFLE_LIMIT, \"Too late, bet forfeited\");\n        bytes32 test_hash = keccak256(abi.encodePacked(_choice, _nonce));\n        uint bet_card = cards[players[msg.sender].idx % SHUFFLE_LIMIT] % SUITE_SIZE;\n        uint result_card = cards[addmod(players[msg.sender].idx, 1, SHUFFLE_LIMIT)] % SUITE_SIZE;\n        if(test_hash == players[msg.sender].commitment) {\n            if (result_card == bet_card)\n                house.transfer(players[msg.sender].bet_amount);\n            else if (result_card < bet_card && _choice == 0)\n                msg.sender.transfer(2*players[msg.sender].bet_amount);\n            else if (result_card > bet_card && _choice == 1)\n                msg.sender.transfer(2*players[msg.sender].bet_amount);\n            players[msg.sender].bet_amount = 0;\n        }\n    }\n}",
  "sourcePath": "/home/ajainuary/blockchain/A3/contracts/HighLow.sol",
  "compiler": {
    "name": "solc",
    "version": "0.5.8+commit.23d335f2.Emscripten.clang"
  },
  "schemaVersion": "3.0.14",
  "updatedAt": "2019-11-28T17:49:44.237Z",
  "devdoc": {
    "methods": {
      "bet_commit(bytes32)": {
        "params": {
          "_commit": "SHA-3 256 Hash of the Choice and random nonce"
        }
      },
      "bet_reveal(uint8,uint256)": {
        "details": "NOTE: new_card() called before require to break deadlocks",
        "params": {
          "_choice": "Choice (0 for High, 1 for Low) commited earlier",
          "_nonce": "Same nonce used for commitment earlier"
        }
      },
      "deposit(uint256)": {
        "params": {
          "_amount": "Value of ether being deposited (in wei)"
        }
      }
    }
  },
  "userdoc": {
    "methods": {
      "bet_commit(bytes32)": {
        "notice": "Commit a choice (0 for High, 1 for Low) along with bet money for the announced_card"
      },
      "bet_reveal(uint8,uint256)": {
        "notice": "Reveal the bet to claim rewards"
      },
      "deposit(uint256)": {
        "notice": "Deposit ether into the contract"
      }
    }
  }
}